:020000040800F2
:100000000000012089070008250700082D070008C7
:10001000350700083D0700084507000800000000FC
:100020000000000000000000000000004D07000874
:100030005907000800000000650700087107000864
:10004000D1070008D1070008D1070008D107000830
:10005000D1070008D1070008D1070008D107000820
:10006000D1070008D1070008D1070008D107000810
:10007000D1070008D1070008D1070008D107000800
:10008000D1070008D1070008D1070008D1070008F0
:10009000D1070008D1070008D1070008D1070008E0
:1000A000D1070008D1070008D1070008D1070008D0
:1000B000D1070008D1070008D1070008D1070008C0
:1000C000D1070008D1070008D1070008D1070008B0
:1000D000D1070008D1070008D1070008D1070008A0
:1000E000D1070008D1070008D1070008D107000890
:1000F000D1070008D1070008D1070008D107000880
:10010000D1070008D1070008D1070008D10700086F
:10011000D1070008D1070008D1070008D10700085F
:10012000D1070008D1070008D1070008D10700084F
:1001300000000000000000000000000000000000BF
:1001400000000000000000000000000000000000AF
:10015000000000000000000000000000000000009F
:10016000000000000000000000000000000000008F
:10017000000000000000000000000000000000007F
:10018000000000000000000000000000000000006F
:10019000000000000000000000000000000000005F
:1001A000000000000000000000000000000000004F
:1001B000000000000000000000000000000000003F
:1001C000000000000000000000000000000000002F
:1001D000000000000000000000000000000000001F
:0401E0005FF8E0F1F3
:1001E40010B5054C237833B9044B13B10448AFF36D
:1001F40000800123237010BD0C00002000000000CB
:10020400CC15000808B5034B1BB103490348AFF3F1
:10021400008008BD0000000010000020CC1500087C
:1002240080B584B000AF03460A46FB711346BB7128
:10023400FB79FB73FB7B032B10D0032B17DC012B07
:1002440002D0022B05D012E0BB79184600F036F834
:100254002CE0BB79184600F0D1F827E0BB791846AA
:1002640000F02CF8BB79184600F0C8F81EE0002214
:100274000421104800F086FD002208210D4800F0FA
:1002840081FD002210210B4800F07CFD0022022198
:10029400094800F077FD00228021064800F072FD35
:1002A40000220421044800F06DFD00BF00BF103798
:1002B400BD4680BD001801400020014080B582B0D9
:1002C40000AF0346FB71FB79062B00F2818001A28B
:1002D40052F823F0F502000815030008350300085E
:1002E400550300087503000895030008B5030008CA
:1002F40001220421404800F045FD002208213E4827
:1003040000F040FD002210213B4800F03BFD6FE06F
:1003140000220421384800F035FD01220821364826
:1003240000F030FD00221021334800F02BFD5FE087
:1003340000220421304800F025FD002208212E4827
:1003440000F020FD012210212B4800F01BFD4FE09E
:1003540001220421284800F015FD01220821264825
:1003640000F010FD00221021234800F00BFD3FE0B7
:1003740001220421204800F005FD002208211E4826
:1003840000F000FD012210211B4800F0FBFC2FE0CF
:1003940000220421184800F0F5FC01220821164827
:1003A40000F0F0FC01221021134800F0EBFC1FE0E8
:1003B40001220421104800F0E5FC012208210E4826
:1003C40000F0E0FC012210210B4800F0DBFC0FE000
:1003D40000220421084800F0D5FC00220821064828
:1003E40000F0D0FC00221021034800F0CBFC00BF39
:1003F40000BF0837BD4680BD0018014080B582B0FB
:1004040000AF0346FB71FB79062B00F2818001A249
:1004140052F823F035040008550400087504000858
:1004240095040008B5040008D5040008F504000884
:1004340001220221404800F0A5FC002280213F480F
:1004440000F0A0FC002204213B4800F09BFC6FE07C
:1004540000220221384800F095FC0122802137480F
:1004640000F090FC00220421334800F08BFC5FE094
:1004740000220221304800F085FC002280212F4810
:1004840000F080FC012204212B4800F07BFC4FE0AB
:1004940001220221284800F075FC0122802127480E
:1004A40000F070FC00220421234800F06BFC3FE0C4
:1004B40001220221204800F065FC002280211F480F
:1004C40000F060FC012204211B4800F05BFC2FE0DB
:1004D40000220221184800F055FC0122802117480F
:1004E40000F050FC01220421134800F04BFC1FE0F3
:1004F40001220221104800F045FC012280210F480E
:1005040000F040FC012204210B4800F03BFC0FE00A
:1005140000220221084800F035FC0022802107480F
:1005240000F030FC00220421034800F02BFC00BF43
:1005340000BF0837BD4680BD0020014000180140BF
:1005440080B500AF06210320FFF76AFE00BF80BD1F
:1005540080B588B000AF07F1100300221A605A601A
:100564009A60DA60264B9B69254A43F04003936105
:10057400234B9B6903F04003FB60FB68204B9B69A2
:100584001F4A43F4807393611D4B9B6903F480738A
:10059400BB60BB681A4B9B69194A43F0040393611F
:1005A400174B9B6903F004037B607B6800229C214A
:1005B400144800F0E7FB00220621134800F0E2FB98
:1005C4009C233B6101237B610023BB610223FB610C
:1005D40007F1100319460B4800F040FA06233B616B
:1005E40001237B610023BB610223FB6107F110033C
:1005F4001946054800F032FA00BF2037BD4680BDD9
:1006040000100240001801400020014080B500AFF6
:1006140000F0DEF800F006F8FFF79AFFFFF790FF0E
:1006240000BFFDE780B590B000AF07F118032822A2
:100634000021184600F09CFF3B1D00221A605A60FE
:100644009A60DA601A610123BB614FF48033FB6165
:1006540000233B620123BB6202237B634FF480339C
:10066400BB634FF4E013FB6307F11803184600F073
:10067400A1FB0346002B01D000F019F80F237B6087
:100684000223BB600023FB604FF480633B610023C3
:100694007B613B1D0221184600F00EFE0346002B31
:1006A40001D000F004F800BF4037BD4680BD80B4DF
:1006B40000AF72B600BF00BFFDE7000080B485B094
:1006C40000AF154B9B69144A43F001039361124B2D
:1006D4009B6903F00103BB60BB680F4BDB690E4AE7
:1006E40043F08053D3610C4BDB6903F080537B6090
:1006F4007B680A4B5B68FB60FB6823F0E063FB608C
:10070400FB6843F00073FB60044AFB68536000BF5E
:100714001437BD4680BC7047001002400000014001
:1007240080B400AF00BFFDE780B400AF00BFFDE7B9
:1007340080B400AF00BFFDE780B400AF00BFFDE7A9
:1007440080B400AF00BFFDE780B400AF00BFBD467A
:1007540080BC704780B400AF00BFBD4680BC70470A
:1007640080B400AF00BFBD4680BC704780B500AF09
:1007740000F074F800BF80BD80B400AF00BFBD4678
:1007840080BC7047FFF7F8FF0B480C490C4A002364
:1007940002E0D458C4500433C4188C42F9D3094A33
:1007A400094C002301E013600432A242FBD300F0A1
:1007B400E7FEFFF72BFF7047000000200C0000202D
:1007C400101600080C0000202C000020FEE700009A
:1007D40080B500AF084B1B68074A43F01003136051
:1007E400032000F007F90F2000F008F8FFF766FF78
:1007F4000023184680BD00BF0020024080B582B0AF
:1008040000AF7860124B1A68124B1B7819464FF4EC
:100814007A73B3FBF1F3B2FBF3F3184600F011F96A
:100824000346002B01D001230EE07B680F2B0AD86E
:10083400002279684FF0FF3000F0E7F8064A7B6841
:100844001360002300E0012318460837BD4680BD2D
:1008540000000020080000200400002080B400AF45
:10086400054B1B781A46054B1B681344034A136057
:1008740000BFBD4680BC704708000020280000204F
:1008840080B400AF024B1B681846BD4680BC70475D
:100894002800002080B485B000AF78607B6803F046
:1008A4000703FB600C4BDB68BB60BA684FF6FF03C1
:1008B4001340BB60FB681A02BB68134343F0BF6379
:1008C40043F40033BB60044ABB68D36000BF1437F1
:1008D400BD4680BC704700BF00ED00E080B400AFAF
:1008E400044BDB681B0A03F007031846BD4680BCB3
:1008F400704700BF00ED00E080B483B000AF034652
:100904003960FB7197F90730002B0ADB3B68DAB2D8
:100914000C4997F907301201D2B20B4483F8002333
:100924000AE03B68DAB20849FB7903F00F03043BA1
:100934001201D2B20B441A7600BF0C37BD4680BCFC
:10094400704700BF00E100E000ED00E080B489B032
:1009540000AFF860B9607A60FB6803F00703FB61DD
:10096400FB69C3F10703042B28BF0423BB61FB69A4
:100974000433062B02D9FB69033B00E000237B61AF
:100984004FF0FF32BB6902FA03F3DA43BB681A4043
:100994007B699A404FF0FF317B6901FA03F3D94335
:1009A4007B680B40134318462437BD4680BC704710
:1009B40080B582B000AF78607B68013BB3F1807F83
:1009C40001D301230FE00A4A7B68013B53600F21E6
:1009D4004FF0FF30FFF790FF054B00229A60044B65
:1009E40007221A60002318460837BD4680BD00BFA1
:1009F40010E000E080B582B000AF78607868FFF75F
:100A040049FF00BF0837BD4680BD80B586B000AF42
:100A14000346B9607A60FB7300237B61FFF75EFFD6
:100A240078617A68B9687869FFF790FF024697F9A8
:100A34000F3011461846FFF75FFF00BF1837BD4659
:100A440080BD80B582B000AF78607868FFF7B0FFF2
:100A5400034618460837BD4680BD000080B48BB0FD
:100A640000AF7860396000237B6200233B6279E148
:100A740001227B6A02FA03F3FB613B681B68FA6993
:100A84001340BB61BA69FB699A4240F068813B68D4
:100A94005B68964A93425ED0944A934275D8944ACE
:100AA400934258D0924A93426FD8924A934252D07A
:100AB400904A934269D8904A93424CD08E4A9342CA
:100AC40063D88E4A934246D08C4A93425DD8122B07
:100AD4002AD8122B59D801A252F823F05B0B000834
:100AE400350B0008470B0008890B00088F0B000822
:100AF4008F0B00088F0B00088F0B00088F0B00086A
:100B04008F0B00088F0B00088F0B00088F0B000859
:100B14008F0B00088F0B00088F0B00088F0B000849
:100B24003D0B0008510B0008754A934213D02CE08A
:100B34003B68DB683B6229E03B68DB6804333B626B
:100B440024E03B68DB6808333B621FE03B68DB68FA
:100B54000C333B621AE03B689B68002B02D10423F0
:100B64003B6213E03B689B68012B05D108233B6281
:100B74007B68FA691A6109E008233B627B68FA69B9
:100B84005A6103E000233B6200E000BFBB69FF2B16
:100B940001D87B6801E07B6804337B61BB69FF2B70
:100BA40002D87B6A9B0002E07B6A083B9B003B61A6
:100BB4007B691A680F213B6901FA03F3DB431A408E
:100BC400396A3B6901FA03F31A437B691A603B688B
:100BD4005B6803F08053002B00F0C180494B9B6994
:100BE400484A43F001039361464B9B6903F00103B8
:100BF400BB60BB68444A7B6A9B08023352F82330CB
:100C0400FB607B6A03F003039B000F2202FA03F3E9
:100C1400DB43FA681340FB607B683C4A93421FD075
:100C24007B683B4A934219D07B683A4A934213D07B
:100C34007B68394A93420DD07B68384A934207D087
:100C44007B68374A934201D105230AE0062308E072
:100C5400042306E0032304E0022302E0012300E06E
:100C640000237A6A02F0030292009340FA68134365
:100C7400FB6025497B6A9B080233FA6841F823200C
:100C84003B685B6803F48013002B06D0254B9A68FD
:100C94002449BB6913438B6006E0224B9A68BB6905
:100CA400DB43204913408B603B685B6803F400130B
:100CB400002B06D01B4BDA681A49BB691343CB607F
:100CC40006E0184BDA68BB69DB4316491340CB6076
:100CD4003B685B6803F40033002B25D0114B5A6842
:100CE4001049BB6913434B6025E000BF000032107C
:100CF400000031100000221000002110000012102A
:100D040000001110001002400000014000080140E2
:100D1400000C014000100140001401400018014083
:100D2400001C014000040140154B5A68BB69DB43B9
:100D3400134913404B603B685B6803F48033002B1A
:100D440006D00F4B1A680E49BB6913430B6006E0CB
:100D54000B4B1A68BB69DB43094913400B607B6A80
:100D640001337B623B681A687B6A22FA03F3002B27
:100D74007FF47EAE00BF00BF2C37BD4680BC7047F9
:100D84000004014080B483B000AF78600B467B80E0
:100D940013467B707B78002B03D07A887B681A61BA
:100DA40003E07B881A047B681A6100BF0C37BD46D8
:100DB40080BC704780B586B000AF78607B68002B3C
:100DC40001D1012372E27B681B6803F00103002B4D
:100DD40000F08780924B5B6803F00C03042B0CD06B
:100DE4008F4B5B6803F00C03082B12D18C4B5B68B0
:100DF40003F48033B3F5803F0BD1894B1B6803F4B4
:100E04000033002B6CD07B685B68002B68D1012316
:100E14004CE27B685B68B3F5803F06D1804B1B686E
:100E24007F4A43F4803313602EE07B685B68002BB9
:100E34000CD17B4B1B687A4A23F480331360784BC4
:100E44001B68774A23F4802313601DE07B685B688A
:100E5400B3F5A02F0CD1724B1B68714A43F4802365
:100E640013606F4B1B686E4A43F4803313600BE0CE
:100E74006B4B1B686A4A23F480331360684B1B680E
:100E8400674A23F4802313607B685B68002B13D0CC
:100E9400FFF7F6FC386108E0FFF7F2FC02463B6915
:100EA400D31A642B01D9032300E25D4B1B6803F4BE
:100EB4000033002BF0D014E0FFF7E2FC386108E0C7
:100EC400FFF7DEFC02463B69D31A642B01D90323E6
:100ED400ECE1534B1B6803F40033002BF0D100E02A
:100EE40000BF7B681B6803F00203002B63D04C4BEC
:100EF4005B6803F00C03002B0BD0494B5B6803F0D9
:100F04000C03082B1CD1464B5B6803F48033002B85
:100F140016D1434B1B6803F00203002B05D07B68FA
:100F24001B69012B01D00123C0E13D4B1B6823F059
:100F3400F8027B685B69DB00394913430B603AE0D4
:100F44007B681B69002B20D0364B01221A60FFF707
:100F540097FC386108E0FFF793FC02463B69D31A1B
:100F6400022B01D90323A1E12D4B1B6803F00203DB
:100F7400002BF0D02A4B1B6823F0F8027B685B69D6
:100F8400DB00274913430B6015E0264B00221A604F
:100F9400FFF776FC386108E0FFF772FC02463B6914
:100FA400D31A022B01D9032380E11D4B1B6803F0E4
:100FB4000203002BF0D17B681B6803F00803002BAD
:100FC4003AD07B689B69002B19D0174B01221A6019
:100FD400FFF756FC386108E0FFF752FC02463B6914
:100FE400D31A022B01D9032360E10D4B5B6A03F092
:100FF4000203002BF0D0012000F09CFA1CE00A4B05
:1010040000221A60FFF73CFC38610FE0FFF738FC60
:1010140002463B69D31A022B08D9032346E100BFD9
:10102400001002400000424280044242924B5B6A3C
:1010340003F00203002BE9D17B681B6803F004036F
:10104400002B00F0A6800023FB758B4BDB6903F0BB
:101054008053002B0DD1884BDB69874A43F08053C2
:10106400D361854BDB6903F08053BB60BB6801230C
:10107400FB75824B1B6803F48073002B18D17F4BE4
:101084001B687E4A43F480731360FFF7F9FB3861F1
:1010940008E0FFF7F5FB02463B69D31A642B01D93C
:1010A400032303E1754B1B6803F48073002BF0D01A
:1010B4007B68DB68012B06D16F4B1B6A6E4A43F0D9
:1010C400010313622DE07B68DB68002B0CD16A4BB3
:1010D4001B6A694A23F001031362674B1B6A664A61
:1010E40023F0040313621CE07B68DB68052B0CD13E
:1010F400614B1B6A604A43F0040313625E4B1B6A34
:101104005D4A43F0010313620BE05B4B1B6A5A4ACE
:1011140023F001031362584B1B6A574A23F004035C
:1011240013627B68DB68002B15D0FFF7A9FB3861DD
:101134000AE0FFF7A5FB02463B69D31A41F2883265
:10114400934201D90323B1E04B4B1B6A03F0020322
:10115400002BEED014E0FFF793FB38610AE0FFF7B1
:101164008FFB02463B69D31A41F28832934201D97C
:1011740003239BE0404B1B6A03F00203002BEED1D8
:10118400FB7D012B05D13C4BDB693B4A23F08053AB
:10119400D3617B68DB69002B00F08780364B5B688A
:1011A40003F00C03082B61D07B68DB69022B46D16A
:1011B400334B00221A60FFF763FB386108E0FFF746
:1011C4005FFB02463B69D31A022B01D903236DE06E
:1011D400294B1B6803F00073002BF0D17B681B6A5A
:1011E400B3F5803F08D1244B5B6823F400327B685D
:1011F4009B68214913434B601F4B5B6823F47412B3
:101204007B68196A7B685B6A0B431B4913434B6019
:101214001B4B01221A60FFF733FB386108E0FFF72C
:101224002FFB02463B69D31A022B01D903233DE06D
:10123400114B1B6803F00073002BF0D035E0104B0A
:1012440000221A60FFF71CFB386108E0FFF718FB67
:1012540002463B69D31A022B01D9032326E0064B2D
:101264001B6803F00073002BF0D11EE07B68DB6980
:10127400012B07D1012319E0001002400070004047
:10128400600042420B4B5B68FB60FB6803F48032F6
:101294007B681B6A9A4206D1FB6803F470127B6870
:1012A4005B6A9A4201D0012300E0002318461837F4
:1012B400BD4680BD0010024080B584B000AF7860A8
:1012C40039607B68002B01D10123D0E06A4B1B6895
:1012D40003F007033A689A4210D9674B1B6823F05E
:1012E400070265493B6813430B60634B1B6803F0BB
:1012F40007033A689A4201D00123B8E07B681B686F
:1013040003F00203002B20D07B681B6803F0040366
:10131400002B05D0594B5B68584A43F4E063536093
:101324007B681B6803F00803002B05D0534B5B68F4
:10133400524A43F460535360504B5B6823F0F0020D
:101344007B689B684D4913434B607B681B6803F0C3
:101354000103002B40D07B685B68012B07D1474B0E
:101364001B6803F40033002B15D101237FE07B6855
:101374005B68022B07D1414B1B6803F00073002B01
:1013840009D1012373E03D4B1B6803F00203002BDA
:1013940001D101236BE0394B5B6823F003027B68C6
:1013A4005B68364913434B60FFF76AFAF8600AE05A
:1013B400FFF766FA0246FB68D31A41F28832934279
:1013C40001D9032353E02D4B5B6803F00C027B68C7
:1013D4005B689B009A42EBD1274B1B6803F0070321
:1013E4003A689A4210D2244B1B6823F00702224920
:1013F4003B6813430B60204B1B6803F007033A68F8
:101404009A4201D0012332E07B681B6803F0040395
:10141400002B08D0194B5B6823F4E0627B68DB681F
:10142400164913434B607B681B6803F00803002BC9
:1014340009D0124B5B6823F460527B681B69DB00A4
:101444000E4913434B6000F021F802460B4B5B68D6
:101454001B0903F00F030A49CB5C22FA03F3094A80
:101464001360094B1B681846FFF7C8F90023184698
:101474001037BD4680BD00BF00200240001002406E
:10148400E4150008000000200400002080B487B0A8
:1014940000AF0023FB600023BB6000237B610023BB
:1014A4007B6000233B611E4B5B68FB60FB6803F0C1
:1014B4000C03042B02D0082B03D027E0194B3B610B
:1014C40027E0FB689B0C03F00F03174AD35C7B6097
:1014D400FB6803F48033002B10D0114B5B685B0C6A
:1014E40003F00103114AD35CBB607B680D4A03FB24
:1014F40002F2BB68B2FBF3F37B6104E07B680C4A45
:1015040002FB03F37B617B693B6102E0054B3B61BA
:1015140000BF3B6918461C37BD4680BC704700BFFE
:101524000010024000127A00F415000804160008A6
:1015340000093D0080B485B000AF78600A4B1B6899
:101544000A4AA2FB03235B0A7A6802FB03F3FB60EB
:1015540000BFFB685A1EFA60002BF9D100BF00BF20
:101564001437BD4680BC704700000020D34D621084
:1015740003460244934200D1704703F8011BF9E784
:1015840070B500260C4D0D4C641BA410A64209D165
:1015940000F01AF800260A4D0A4C641BA410A64257
:1015A40005D170BD55F8043B98470136EEE755F870
:1015B400043B98470136F2E70816000808160008AD
:1015C400081600080C160008F8B500BFF8BC08BCE3
:1015D4009E467047F8B500BFF8BC08BC9E467047ED
:1015E40000000000000000000102030406070809CF
:1015F40002030405060708090A0B0C0D0E0F101050
:0416040001020000DF
:0416080009020008CB
:04160C00E5010008EC
:0C1610000024F4001000000001000000A5
:04000005080007895F
:00000001FF
